{
  "_format": "hh-sol-artifact-1",
  "contractName": "TGuard",
  "sourceName": "contracts/TGuard.sol",
  "abi": [
    {
      "inputs": [],
      "stateMutability": "payable",
      "type": "constructor"
    },
    {
      "anonymous": false,
      "inputs": [
        {
          "indexed": true,
          "internalType": "address",
          "name": "owner",
          "type": "address"
        },
        {
          "indexed": true,
          "internalType": "address",
          "name": "approved",
          "type": "address"
        },
        {
          "indexed": true,
          "internalType": "uint256",
          "name": "tokenId",
          "type": "uint256"
        }
      ],
      "name": "Approval",
      "type": "event"
    },
    {
      "anonymous": false,
      "inputs": [
        {
          "indexed": true,
          "internalType": "address",
          "name": "owner",
          "type": "address"
        },
        {
          "indexed": true,
          "internalType": "address",
          "name": "operator",
          "type": "address"
        },
        {
          "indexed": false,
          "internalType": "bool",
          "name": "approved",
          "type": "bool"
        }
      ],
      "name": "ApprovalForAll",
      "type": "event"
    },
    {
      "anonymous": false,
      "inputs": [
        {
          "indexed": true,
          "internalType": "address",
          "name": "previousOwner",
          "type": "address"
        },
        {
          "indexed": true,
          "internalType": "address",
          "name": "newOwner",
          "type": "address"
        }
      ],
      "name": "OwnershipTransferred",
      "type": "event"
    },
    {
      "anonymous": false,
      "inputs": [
        {
          "indexed": false,
          "internalType": "uint256",
          "name": "ticketID",
          "type": "uint256"
        },
        {
          "indexed": false,
          "internalType": "address",
          "name": "userWallet",
          "type": "address"
        }
      ],
      "name": "TicketBuy",
      "type": "event"
    },
    {
      "anonymous": false,
      "inputs": [
        {
          "indexed": true,
          "internalType": "address",
          "name": "from",
          "type": "address"
        },
        {
          "indexed": true,
          "internalType": "address",
          "name": "to",
          "type": "address"
        },
        {
          "indexed": true,
          "internalType": "uint256",
          "name": "tokenId",
          "type": "uint256"
        }
      ],
      "name": "Transfer",
      "type": "event"
    },
    {
      "anonymous": false,
      "inputs": [
        {
          "indexed": false,
          "internalType": "uint256",
          "name": "time",
          "type": "uint256"
        },
        {
          "indexed": false,
          "internalType": "uint256",
          "name": "amount",
          "type": "uint256"
        }
      ],
      "name": "WithdrawDividend",
      "type": "event"
    },
    {
      "anonymous": false,
      "inputs": [
        {
          "indexed": false,
          "internalType": "string",
          "name": "name",
          "type": "string"
        },
        {
          "indexed": false,
          "internalType": "string",
          "name": "date",
          "type": "string"
        },
        {
          "indexed": false,
          "internalType": "string",
          "name": "location",
          "type": "string"
        },
        {
          "indexed": false,
          "internalType": "string",
          "name": "imgPath",
          "type": "string"
        },
        {
          "indexed": false,
          "internalType": "uint256",
          "name": "price",
          "type": "uint256"
        },
        {
          "indexed": false,
          "internalType": "string",
          "name": "description",
          "type": "string"
        }
      ],
      "name": "eventCreated",
      "type": "event"
    },
    {
      "inputs": [
        {
          "internalType": "address",
          "name": "to",
          "type": "address"
        },
        {
          "internalType": "uint256",
          "name": "tokenId",
          "type": "uint256"
        }
      ],
      "name": "approve",
      "outputs": [],
      "stateMutability": "nonpayable",
      "type": "function"
    },
    {
      "inputs": [
        {
          "internalType": "address",
          "name": "owner",
          "type": "address"
        }
      ],
      "name": "balanceOf",
      "outputs": [
        {
          "internalType": "uint256",
          "name": "",
          "type": "uint256"
        }
      ],
      "stateMutability": "view",
      "type": "function"
    },
    {
      "inputs": [
        {
          "internalType": "address",
          "name": "",
          "type": "address"
        }
      ],
      "name": "buyBackList",
      "outputs": [
        {
          "internalType": "uint256",
          "name": "",
          "type": "uint256"
        }
      ],
      "stateMutability": "view",
      "type": "function"
    },
    {
      "inputs": [
        {
          "internalType": "uint256",
          "name": "eventID",
          "type": "uint256"
        }
      ],
      "name": "buyTickets",
      "outputs": [],
      "stateMutability": "payable",
      "type": "function"
    },
    {
      "inputs": [
        {
          "internalType": "string",
          "name": "_name",
          "type": "string"
        },
        {
          "internalType": "string",
          "name": "_date",
          "type": "string"
        },
        {
          "internalType": "string",
          "name": "_location",
          "type": "string"
        },
        {
          "internalType": "string",
          "name": "_imgPath",
          "type": "string"
        },
        {
          "internalType": "uint256",
          "name": "_price",
          "type": "uint256"
        },
        {
          "internalType": "string",
          "name": "_description",
          "type": "string"
        }
      ],
      "name": "createEvent",
      "outputs": [],
      "stateMutability": "nonpayable",
      "type": "function"
    },
    {
      "inputs": [],
      "name": "eventCount",
      "outputs": [
        {
          "internalType": "uint256",
          "name": "",
          "type": "uint256"
        }
      ],
      "stateMutability": "view",
      "type": "function"
    },
    {
      "inputs": [
        {
          "internalType": "uint256",
          "name": "",
          "type": "uint256"
        }
      ],
      "name": "events",
      "outputs": [
        {
          "internalType": "string",
          "name": "name",
          "type": "string"
        },
        {
          "internalType": "string",
          "name": "date",
          "type": "string"
        },
        {
          "internalType": "string",
          "name": "location",
          "type": "string"
        },
        {
          "internalType": "string",
          "name": "imgPath",
          "type": "string"
        },
        {
          "internalType": "uint256",
          "name": "price",
          "type": "uint256"
        },
        {
          "internalType": "string",
          "name": "description",
          "type": "string"
        }
      ],
      "stateMutability": "view",
      "type": "function"
    },
    {
      "inputs": [
        {
          "internalType": "uint256",
          "name": "tokenId",
          "type": "uint256"
        }
      ],
      "name": "getApproved",
      "outputs": [
        {
          "internalType": "address",
          "name": "",
          "type": "address"
        }
      ],
      "stateMutability": "view",
      "type": "function"
    },
    {
      "inputs": [],
      "name": "getContractBalance",
      "outputs": [
        {
          "internalType": "uint256",
          "name": "",
          "type": "uint256"
        }
      ],
      "stateMutability": "view",
      "type": "function"
    },
    {
      "inputs": [
        {
          "internalType": "address",
          "name": "owner",
          "type": "address"
        },
        {
          "internalType": "address",
          "name": "operator",
          "type": "address"
        }
      ],
      "name": "isApprovedForAll",
      "outputs": [
        {
          "internalType": "bool",
          "name": "",
          "type": "bool"
        }
      ],
      "stateMutability": "view",
      "type": "function"
    },
    {
      "inputs": [
        {
          "internalType": "uint256",
          "name": "",
          "type": "uint256"
        }
      ],
      "name": "isEventCreated",
      "outputs": [
        {
          "internalType": "bool",
          "name": "",
          "type": "bool"
        }
      ],
      "stateMutability": "view",
      "type": "function"
    },
    {
      "inputs": [],
      "name": "maxSell",
      "outputs": [
        {
          "internalType": "uint256",
          "name": "",
          "type": "uint256"
        }
      ],
      "stateMutability": "view",
      "type": "function"
    },
    {
      "inputs": [],
      "name": "name",
      "outputs": [
        {
          "internalType": "string",
          "name": "",
          "type": "string"
        }
      ],
      "stateMutability": "view",
      "type": "function"
    },
    {
      "inputs": [],
      "name": "owner",
      "outputs": [
        {
          "internalType": "address",
          "name": "",
          "type": "address"
        }
      ],
      "stateMutability": "view",
      "type": "function"
    },
    {
      "inputs": [
        {
          "internalType": "uint256",
          "name": "tokenId",
          "type": "uint256"
        }
      ],
      "name": "ownerOf",
      "outputs": [
        {
          "internalType": "address",
          "name": "",
          "type": "address"
        }
      ],
      "stateMutability": "view",
      "type": "function"
    },
    {
      "inputs": [],
      "name": "renounceOwnership",
      "outputs": [],
      "stateMutability": "nonpayable",
      "type": "function"
    },
    {
      "inputs": [
        {
          "internalType": "uint256",
          "name": "ticketID",
          "type": "uint256"
        },
        {
          "internalType": "uint256",
          "name": "eventID",
          "type": "uint256"
        }
      ],
      "name": "returnTicket",
      "outputs": [],
      "stateMutability": "nonpayable",
      "type": "function"
    },
    {
      "inputs": [
        {
          "internalType": "address",
          "name": "from",
          "type": "address"
        },
        {
          "internalType": "address",
          "name": "to",
          "type": "address"
        },
        {
          "internalType": "uint256",
          "name": "tokenId",
          "type": "uint256"
        }
      ],
      "name": "safeTransferFrom",
      "outputs": [],
      "stateMutability": "nonpayable",
      "type": "function"
    },
    {
      "inputs": [
        {
          "internalType": "address",
          "name": "from",
          "type": "address"
        },
        {
          "internalType": "address",
          "name": "to",
          "type": "address"
        },
        {
          "internalType": "uint256",
          "name": "tokenId",
          "type": "uint256"
        },
        {
          "internalType": "bytes",
          "name": "_data",
          "type": "bytes"
        }
      ],
      "name": "safeTransferFrom",
      "outputs": [],
      "stateMutability": "nonpayable",
      "type": "function"
    },
    {
      "inputs": [
        {
          "internalType": "address",
          "name": "operator",
          "type": "address"
        },
        {
          "internalType": "bool",
          "name": "approved",
          "type": "bool"
        }
      ],
      "name": "setApprovalForAll",
      "outputs": [],
      "stateMutability": "nonpayable",
      "type": "function"
    },
    {
      "inputs": [
        {
          "internalType": "uint256",
          "name": "_maxSell",
          "type": "uint256"
        }
      ],
      "name": "setMaxSell",
      "outputs": [],
      "stateMutability": "nonpayable",
      "type": "function"
    },
    {
      "inputs": [
        {
          "internalType": "bytes4",
          "name": "interfaceId",
          "type": "bytes4"
        }
      ],
      "name": "supportsInterface",
      "outputs": [
        {
          "internalType": "bool",
          "name": "",
          "type": "bool"
        }
      ],
      "stateMutability": "view",
      "type": "function"
    },
    {
      "inputs": [],
      "name": "symbol",
      "outputs": [
        {
          "internalType": "string",
          "name": "",
          "type": "string"
        }
      ],
      "stateMutability": "view",
      "type": "function"
    },
    {
      "inputs": [
        {
          "internalType": "uint256",
          "name": "",
          "type": "uint256"
        }
      ],
      "name": "ticketEvent",
      "outputs": [
        {
          "internalType": "uint256",
          "name": "",
          "type": "uint256"
        }
      ],
      "stateMutability": "view",
      "type": "function"
    },
    {
      "inputs": [],
      "name": "toggleSellOpen",
      "outputs": [],
      "stateMutability": "nonpayable",
      "type": "function"
    },
    {
      "inputs": [
        {
          "internalType": "uint256",
          "name": "tokenId",
          "type": "uint256"
        }
      ],
      "name": "tokenURI",
      "outputs": [
        {
          "internalType": "string",
          "name": "",
          "type": "string"
        }
      ],
      "stateMutability": "view",
      "type": "function"
    },
    {
      "inputs": [],
      "name": "totalSell",
      "outputs": [
        {
          "internalType": "uint256",
          "name": "",
          "type": "uint256"
        }
      ],
      "stateMutability": "view",
      "type": "function"
    },
    {
      "inputs": [
        {
          "internalType": "address",
          "name": "from",
          "type": "address"
        },
        {
          "internalType": "address",
          "name": "to",
          "type": "address"
        },
        {
          "internalType": "uint256",
          "name": "tokenId",
          "type": "uint256"
        }
      ],
      "name": "transferFrom",
      "outputs": [],
      "stateMutability": "nonpayable",
      "type": "function"
    },
    {
      "inputs": [
        {
          "internalType": "address",
          "name": "newOwner",
          "type": "address"
        }
      ],
      "name": "transferOwnership",
      "outputs": [],
      "stateMutability": "nonpayable",
      "type": "function"
    },
    {
      "inputs": [],
      "name": "withdrawSellDividend",
      "outputs": [],
      "stateMutability": "nonpayable",
      "type": "function"
    }
  ],
  "bytecode": "0x608060405260006009556001600a60006101000a81548160ff0219169083151502179055506040518060400160405280600e81526020017f544775617264205469636b6574730000000000000000000000000000000000008152506040518060400160405280600681526020017f54477561726400000000000000000000000000000000000000000000000000008152508160009080519060200190620000a8929190620001c0565b508060019080519060200190620000c1929190620001c0565b505050620000e4620000d8620000f260201b60201c565b620000fa60201b60201c565b60c8600881905550620002d5565b600033905090565b6000600660009054906101000a900473ffffffffffffffffffffffffffffffffffffffff16905081600660006101000a81548173ffffffffffffffffffffffffffffffffffffffff021916908373ffffffffffffffffffffffffffffffffffffffff1602179055508173ffffffffffffffffffffffffffffffffffffffff168173ffffffffffffffffffffffffffffffffffffffff167f8be0079c531659141344cd1fd0a4f28419497f9722a3daafe3b4186f6b6457e060405160405180910390a35050565b828054620001ce9062000270565b90600052602060002090601f016020900481019282620001f257600085556200023e565b82601f106200020d57805160ff19168380011785556200023e565b828001600101855582156200023e579182015b828111156200023d57825182559160200191906001019062000220565b5b5090506200024d919062000251565b5090565b5b808211156200026c57600081600090555060010162000252565b5090565b600060028204905060018216806200028957607f821691505b60208210811415620002a0576200029f620002a6565b5b50919050565b7f4e487b7100000000000000000000000000000000000000000000000000000000600052602260045260246000fd5b61408080620002e56000396000f3fe6080604052600436106101cd5760003560e01c80638da5cb5b116100f7578063c20b324d11610095578063e0202f8711610064578063e0202f871461067e578063e985e9c5146106a9578063ef998cf0146106e6578063f2fde38b1461070f576101cd565b8063c20b324d146105c4578063c87b56dd14610601578063cb6abfd01461063e578063d1a20c0014610667576101cd565b8063a22cb465116100d1578063a22cb46514610530578063a4b2111e14610559578063b88d4fde14610570578063b8eb354614610599576101cd565b80638da5cb5b1461049d57806390952187146104c857806395d89b4114610505576101cd565b80632f3666371161016f5780636f9fb98a1161013e5780636f9fb98a146103f357806370a082311461041e578063715018a61461045b57806371be2e4a14610472576101cd565b80632f3666371461033457806332b13fae1461035057806342842e0e1461038d5780636352211e146103b6576101cd565b8063095ea7b3116101ab578063095ea7b3146102775780630b791430146102a057806323b872dd146102e257806324b3fce91461030b576101cd565b806301ffc9a7146101d257806306fdde031461020f578063081812fc1461023a575b600080fd5b3480156101de57600080fd5b506101f960048036038101906101f49190612b75565b610738565b60405161020691906131f8565b60405180910390f35b34801561021b57600080fd5b5061022461081a565b6040516102319190613213565b60405180910390f35b34801561024657600080fd5b50610261600480360381019061025c9190612ce8565b6108ac565b60405161026e9190613191565b60405180910390f35b34801561028357600080fd5b5061029e60048036038101906102999190612b35565b610931565b005b3480156102ac57600080fd5b506102c760048036038101906102c29190612ce8565b610a49565b6040516102d996959493929190613235565b60405180910390f35b3480156102ee57600080fd5b5061030960048036038101906103049190612a1f565b610d2d565b005b34801561031757600080fd5b50610332600480360381019061032d9190612d15565b610d8d565b005b61034e60048036038101906103499190612ce8565b610f24565b005b34801561035c57600080fd5b50610377600480360381019061037291906129b2565b6110fd565b60405161038491906135b9565b60405180910390f35b34801561039957600080fd5b506103b460048036038101906103af9190612a1f565b611115565b005b3480156103c257600080fd5b506103dd60048036038101906103d89190612ce8565b611135565b6040516103ea9190613191565b60405180910390f35b3480156103ff57600080fd5b506104086111e7565b60405161041591906135b9565b60405180910390f35b34801561042a57600080fd5b50610445600480360381019061044091906129b2565b6111ef565b60405161045291906135b9565b60405180910390f35b34801561046757600080fd5b506104706112a7565b005b34801561047e57600080fd5b5061048761132f565b60405161049491906135b9565b60405180910390f35b3480156104a957600080fd5b506104b2611335565b6040516104bf9190613191565b60405180910390f35b3480156104d457600080fd5b506104ef60048036038101906104ea9190612ce8565b61135f565b6040516104fc91906131f8565b60405180910390f35b34801561051157600080fd5b5061051a61137f565b6040516105279190613213565b60405180910390f35b34801561053c57600080fd5b5061055760048036038101906105529190612af5565b611411565b005b34801561056557600080fd5b5061056e611427565b005b34801561057c57600080fd5b5061059760048036038101906105929190612a72565b61152c565b005b3480156105a557600080fd5b506105ae61158e565b6040516105bb91906135b9565b60405180910390f35b3480156105d057600080fd5b506105eb60048036038101906105e69190612ce8565b611594565b6040516105f891906135b9565b60405180910390f35b34801561060d57600080fd5b5061062860048036038101906106239190612ce8565b6115ac565b6040516106359190613213565b60405180910390f35b34801561064a57600080fd5b5061066560048036038101906106609190612bcf565b611653565b005b34801561067357600080fd5b5061067c6117c8565b005b34801561068a57600080fd5b50610693611870565b6040516106a091906135b9565b60405180910390f35b3480156106b557600080fd5b506106d060048036038101906106cb91906129df565b611876565b6040516106dd91906131f8565b60405180910390f35b3480156106f257600080fd5b5061070d60048036038101906107089190612ce8565b61190a565b005b34801561071b57600080fd5b50610736600480360381019061073191906129b2565b6119d4565b005b60007f80ac58cd000000000000000000000000000000000000000000000000000000007bffffffffffffffffffffffffffffffffffffffffffffffffffffffff1916827bffffffffffffffffffffffffffffffffffffffffffffffffffffffff1916148061080357507f5b5e139f000000000000000000000000000000000000000000000000000000007bffffffffffffffffffffffffffffffffffffffffffffffffffffffff1916827bffffffffffffffffffffffffffffffffffffffffffffffffffffffff1916145b80610813575061081282611acc565b5b9050919050565b60606000805461082990613861565b80601f016020809104026020016040519081016040528092919081815260200182805461085590613861565b80156108a25780601f10610877576101008083540402835291602001916108a2565b820191906000526020600020905b81548152906001019060200180831161088557829003601f168201915b5050505050905090565b60006108b782611b36565b6108f6576040517f08c379a00000000000000000000000000000000000000000000000000000000081526004016108ed906134d9565b60405180910390fd5b6004600083815260200190815260200160002060009054906101000a900473ffffffffffffffffffffffffffffffffffffffff169050919050565b600061093c82611135565b90508073ffffffffffffffffffffffffffffffffffffffff168373ffffffffffffffffffffffffffffffffffffffff1614156109ad576040517f08c379a00000000000000000000000000000000000000000000000000000000081526004016109a490613539565b60405180910390fd5b8073ffffffffffffffffffffffffffffffffffffffff166109cc611ba2565b73ffffffffffffffffffffffffffffffffffffffff1614806109fb57506109fa816109f5611ba2565b611876565b5b610a3a576040517f08c379a0000000000000000000000000000000000000000000000000000000008152600401610a3190613439565b60405180910390fd5b610a448383611baa565b505050565b600d602052806000526040600020600091509050806000018054610a6c90613861565b80601f0160208091040260200160405190810160405280929190818152602001828054610a9890613861565b8015610ae55780601f10610aba57610100808354040283529160200191610ae5565b820191906000526020600020905b815481529060010190602001808311610ac857829003601f168201915b505050505090806001018054610afa90613861565b80601f0160208091040260200160405190810160405280929190818152602001828054610b2690613861565b8015610b735780601f10610b4857610100808354040283529160200191610b73565b820191906000526020600020905b815481529060010190602001808311610b5657829003601f168201915b505050505090806002018054610b8890613861565b80601f0160208091040260200160405190810160405280929190818152602001828054610bb490613861565b8015610c015780601f10610bd657610100808354040283529160200191610c01565b820191906000526020600020905b815481529060010190602001808311610be457829003601f168201915b505050505090806003018054610c1690613861565b80601f0160208091040260200160405190810160405280929190818152602001828054610c4290613861565b8015610c8f5780601f10610c6457610100808354040283529160200191610c8f565b820191906000526020600020905b815481529060010190602001808311610c7257829003601f168201915b505050505090806004015490806005018054610caa90613861565b80601f0160208091040260200160405190810160405280929190818152602001828054610cd690613861565b8015610d235780601f10610cf857610100808354040283529160200191610d23565b820191906000526020600020905b815481529060010190602001808311610d0657829003601f168201915b5050505050905086565b610d3e610d38611ba2565b82611c63565b610d7d576040517f08c379a0000000000000000000000000000000000000000000000000000000008152600401610d7490613579565b60405180910390fd5b610d88838383611d41565b505050565b3373ffffffffffffffffffffffffffffffffffffffff16610dad83611135565b73ffffffffffffffffffffffffffffffffffffffff1614610e03576040517f08c379a0000000000000000000000000000000000000000000000000000000008152600401610dfa90613379565b60405180910390fd5b80600c60008481526020019081526020016000205414610e58576040517f08c379a0000000000000000000000000000000000000000000000000000000008152600401610e4f90613559565b60405180910390fd5b600d600082815260200190815260200160002060040154471015610eb1576040517f08c379a0000000000000000000000000000000000000000000000000000000008152600401610ea8906133d9565b60405180910390fd5b610ec333610ebd611335565b84611d41565b3373ffffffffffffffffffffffffffffffffffffffff166108fc600d6000848152602001908152602001600020600401549081150290604051600060405180830381858888f19350505050158015610f1f573d6000803e3d6000fd5b505050565b60011515600a60009054906101000a900460ff16151514610f7a576040517f08c379a0000000000000000000000000000000000000000000000000000000008152600401610f7190613599565b60405180910390fd5b60011515600e600083815260200190815260200160002060009054906101000a900460ff16151514610fe1576040517f08c379a0000000000000000000000000000000000000000000000000000000008152600401610fd890613419565b60405180910390fd5b600d6000828152602001908152602001600020600401543414611039576040517f08c379a000000000000000000000000000000000000000000000000000000000815260040161103090613459565b60405180910390fd5b6007546008541161107f576040517f08c379a0000000000000000000000000000000000000000000000000000000008152600401611076906132b9565b60405180910390fd5b60076000815480929190611092906138c4565b9190505550600060075490506110a83382611fa8565b81600c6000838152602001908152602001600020819055507f6e4c6fe2bb1848bb7762ccaff326611964e3e03d186531744f24178c52f2095281336040516110f19291906135d4565b60405180910390a15050565b600b6020528060005260406000206000915090505481565b6111308383836040518060200160405280600081525061152c565b505050565b6000806002600084815260200190815260200160002060009054906101000a900473ffffffffffffffffffffffffffffffffffffffff169050600073ffffffffffffffffffffffffffffffffffffffff168173ffffffffffffffffffffffffffffffffffffffff1614156111de576040517f08c379a00000000000000000000000000000000000000000000000000000000081526004016111d590613499565b60405180910390fd5b80915050919050565b600047905090565b60008073ffffffffffffffffffffffffffffffffffffffff168273ffffffffffffffffffffffffffffffffffffffff161415611260576040517f08c379a000000000000000000000000000000000000000000000000000000000815260040161125790613479565b60405180910390fd5b600360008373ffffffffffffffffffffffffffffffffffffffff1673ffffffffffffffffffffffffffffffffffffffff168152602001908152602001600020549050919050565b6112af611ba2565b73ffffffffffffffffffffffffffffffffffffffff166112cd611335565b73ffffffffffffffffffffffffffffffffffffffff1614611323576040517f08c379a000000000000000000000000000000000000000000000000000000000815260040161131a906134f9565b60405180910390fd5b61132d6000611fc6565b565b60095481565b6000600660009054906101000a900473ffffffffffffffffffffffffffffffffffffffff16905090565b600e6020528060005260406000206000915054906101000a900460ff1681565b60606001805461138e90613861565b80601f01602080910402602001604051908101604052809291908181526020018280546113ba90613861565b80156114075780601f106113dc57610100808354040283529160200191611407565b820191906000526020600020905b8154815290600101906020018083116113ea57829003601f168201915b5050505050905090565b61142361141c611ba2565b838361208c565b5050565b61142f611ba2565b73ffffffffffffffffffffffffffffffffffffffff1661144d611335565b73ffffffffffffffffffffffffffffffffffffffff16146114a3576040517f08c379a000000000000000000000000000000000000000000000000000000000815260040161149a906134f9565b60405180910390fd5b6114ab611335565b73ffffffffffffffffffffffffffffffffffffffff166108fc479081150290604051600060405180830381858888f193505050501580156114f0573d6000803e3d6000fd5b507fa6bcc549231f64a25595ae6f8e0adf4947b65c8b1dfff8cb072331ef0a67d5e142476040516115229291906135fd565b60405180910390a1565b61153d611537611ba2565b83611c63565b61157c576040517f08c379a000000000000000000000000000000000000000000000000000000000815260040161157390613579565b60405180910390fd5b611588848484846121f9565b50505050565b60085481565b600c6020528060005260406000206000915090505481565b60606115b782611b36565b6115f6576040517f08c379a00000000000000000000000000000000000000000000000000000000081526004016115ed90613519565b60405180910390fd5b6000611600612255565b90506000815111611620576040518060200160405280600081525061164b565b8061162a8461226c565b60405160200161163b92919061316d565b6040516020818303038152906040525b915050919050565b60006040518060c0016040528088815260200187815260200186815260200185815260200184815260200183815250905060096000815480929190611697906138c4565b919050555080600d6000600954815260200190815260200160002060008201518160000190805190602001906116ce9291906127c6565b5060208201518160010190805190602001906116eb9291906127c6565b5060408201518160020190805190602001906117089291906127c6565b5060608201518160030190805190602001906117259291906127c6565b506080820151816004015560a082015181600501908051906020019061174c9291906127c6565b509050506001600e6000600954815260200190815260200160002060006101000a81548160ff0219169083151502179055507f3d5d7fdd2e5776fc6963dc171eb50beac8e642184c93e4ef3b4de658a2ea6dbe8787878787876040516117b796959493929190613235565b60405180910390a150505050505050565b6117d0611ba2565b73ffffffffffffffffffffffffffffffffffffffff166117ee611335565b73ffffffffffffffffffffffffffffffffffffffff1614611844576040517f08c379a000000000000000000000000000000000000000000000000000000000815260040161183b906134f9565b60405180910390fd5b600a60009054906101000a900460ff1615600a60006101000a81548160ff021916908315150217905550565b60075481565b6000600560008473ffffffffffffffffffffffffffffffffffffffff1673ffffffffffffffffffffffffffffffffffffffff16815260200190815260200160002060008373ffffffffffffffffffffffffffffffffffffffff1673ffffffffffffffffffffffffffffffffffffffff16815260200190815260200160002060009054906101000a900460ff16905092915050565b611912611ba2565b73ffffffffffffffffffffffffffffffffffffffff16611930611335565b73ffffffffffffffffffffffffffffffffffffffff1614611986576040517f08c379a000000000000000000000000000000000000000000000000000000000815260040161197d906134f9565b60405180910390fd5b80600854116119ca576040517f08c379a00000000000000000000000000000000000000000000000000000000081526004016119c190613359565b60405180910390fd5b8060088190555050565b6119dc611ba2565b73ffffffffffffffffffffffffffffffffffffffff166119fa611335565b73ffffffffffffffffffffffffffffffffffffffff1614611a50576040517f08c379a0000000000000000000000000000000000000000000000000000000008152600401611a47906134f9565b60405180910390fd5b600073ffffffffffffffffffffffffffffffffffffffff168173ffffffffffffffffffffffffffffffffffffffff161415611ac0576040517f08c379a0000000000000000000000000000000000000000000000000000000008152600401611ab7906132f9565b60405180910390fd5b611ac981611fc6565b50565b60007f01ffc9a7000000000000000000000000000000000000000000000000000000007bffffffffffffffffffffffffffffffffffffffffffffffffffffffff1916827bffffffffffffffffffffffffffffffffffffffffffffffffffffffff1916149050919050565b60008073ffffffffffffffffffffffffffffffffffffffff166002600084815260200190815260200160002060009054906101000a900473ffffffffffffffffffffffffffffffffffffffff1673ffffffffffffffffffffffffffffffffffffffff1614159050919050565b600033905090565b816004600083815260200190815260200160002060006101000a81548173ffffffffffffffffffffffffffffffffffffffff021916908373ffffffffffffffffffffffffffffffffffffffff160217905550808273ffffffffffffffffffffffffffffffffffffffff16611c1d83611135565b73ffffffffffffffffffffffffffffffffffffffff167f8c5be1e5ebec7d5bd14f71427d1e84f3dd0314c0f7b2291e5b200ac8c7c3b92560405160405180910390a45050565b6000611c6e82611b36565b611cad576040517f08c379a0000000000000000000000000000000000000000000000000000000008152600401611ca4906133f9565b60405180910390fd5b6000611cb883611135565b90508073ffffffffffffffffffffffffffffffffffffffff168473ffffffffffffffffffffffffffffffffffffffff161480611d2757508373ffffffffffffffffffffffffffffffffffffffff16611d0f846108ac565b73ffffffffffffffffffffffffffffffffffffffff16145b80611d385750611d378185611876565b5b91505092915050565b8273ffffffffffffffffffffffffffffffffffffffff16611d6182611135565b73ffffffffffffffffffffffffffffffffffffffff1614611db7576040517f08c379a0000000000000000000000000000000000000000000000000000000008152600401611dae90613319565b60405180910390fd5b600073ffffffffffffffffffffffffffffffffffffffff168273ffffffffffffffffffffffffffffffffffffffff161415611e27576040517f08c379a0000000000000000000000000000000000000000000000000000000008152600401611e1e90613399565b60405180910390fd5b611e328383836123cd565b611e3d600082611baa565b6001600360008573ffffffffffffffffffffffffffffffffffffffff1673ffffffffffffffffffffffffffffffffffffffff1681526020019081526020016000206000828254611e8d9190613777565b925050819055506001600360008473ffffffffffffffffffffffffffffffffffffffff1673ffffffffffffffffffffffffffffffffffffffff1681526020019081526020016000206000828254611ee491906136f0565b92505081905550816002600083815260200190815260200160002060006101000a81548173ffffffffffffffffffffffffffffffffffffffff021916908373ffffffffffffffffffffffffffffffffffffffff160217905550808273ffffffffffffffffffffffffffffffffffffffff168473ffffffffffffffffffffffffffffffffffffffff167fddf252ad1be2c89b69c2b068fc378daa952ba7f163c4a11628f55a4df523b3ef60405160405180910390a4611fa38383836123d2565b505050565b611fc28282604051806020016040528060008152506123d7565b5050565b6000600660009054906101000a900473ffffffffffffffffffffffffffffffffffffffff16905081600660006101000a81548173ffffffffffffffffffffffffffffffffffffffff021916908373ffffffffffffffffffffffffffffffffffffffff1602179055508173ffffffffffffffffffffffffffffffffffffffff168173ffffffffffffffffffffffffffffffffffffffff167f8be0079c531659141344cd1fd0a4f28419497f9722a3daafe3b4186f6b6457e060405160405180910390a35050565b8173ffffffffffffffffffffffffffffffffffffffff168373ffffffffffffffffffffffffffffffffffffffff1614156120fb576040517f08c379a00000000000000000000000000000000000000000000000000000000081526004016120f2906133b9565b60405180910390fd5b80600560008573ffffffffffffffffffffffffffffffffffffffff1673ffffffffffffffffffffffffffffffffffffffff16815260200190815260200160002060008473ffffffffffffffffffffffffffffffffffffffff1673ffffffffffffffffffffffffffffffffffffffff16815260200190815260200160002060006101000a81548160ff0219169083151502179055508173ffffffffffffffffffffffffffffffffffffffff168373ffffffffffffffffffffffffffffffffffffffff167f17307eab39ab6107e8899845ad3d59bd9653f200f220920489ca2b5937696c31836040516121ec91906131f8565b60405180910390a3505050565b612204848484611d41565b61221084848484612432565b61224f576040517f08c379a0000000000000000000000000000000000000000000000000000000008152600401612246906132d9565b60405180910390fd5b50505050565b606060405180602001604052806000815250905090565b606060008214156122b4576040518060400160405280600181526020017f300000000000000000000000000000000000000000000000000000000000000081525090506123c8565b600082905060005b600082146122e65780806122cf906138c4565b915050600a826122df9190613746565b91506122bc565b60008167ffffffffffffffff811115612302576123016139fa565b5b6040519080825280601f01601f1916602001820160405280156123345781602001600182028036833780820191505090505b5090505b600085146123c15760018261234d9190613777565b9150600a8561235c919061390d565b603061236891906136f0565b60f81b81838151811061237e5761237d6139cb565b5b60200101907effffffffffffffffffffffffffffffffffffffffffffffffffffffffffffff1916908160001a905350600a856123ba9190613746565b9450612338565b8093505050505b919050565b505050565b505050565b6123e183836125c9565b6123ee6000848484612432565b61242d576040517f08c379a0000000000000000000000000000000000000000000000000000000008152600401612424906132d9565b60405180910390fd5b505050565b60006124538473ffffffffffffffffffffffffffffffffffffffff166127a3565b156125bc578373ffffffffffffffffffffffffffffffffffffffff1663150b7a0261247c611ba2565b8786866040518563ffffffff1660e01b815260040161249e94939291906131ac565b602060405180830381600087803b1580156124b857600080fd5b505af19250505080156124e957506040513d601f19601f820116820180604052508101906124e69190612ba2565b60015b61256c573d8060008114612519576040519150601f19603f3d011682016040523d82523d6000602084013e61251e565b606091505b50600081511415612564576040517f08c379a000000000000000000000000000000000000000000000000000000000815260040161255b906132d9565b60405180910390fd5b805181602001fd5b63150b7a0260e01b7bffffffffffffffffffffffffffffffffffffffffffffffffffffffff1916817bffffffffffffffffffffffffffffffffffffffffffffffffffffffff1916149150506125c1565b600190505b949350505050565b600073ffffffffffffffffffffffffffffffffffffffff168273ffffffffffffffffffffffffffffffffffffffff161415612639576040517f08c379a0000000000000000000000000000000000000000000000000000000008152600401612630906134b9565b60405180910390fd5b61264281611b36565b15612682576040517f08c379a000000000000000000000000000000000000000000000000000000000815260040161267990613339565b60405180910390fd5b61268e600083836123cd565b6001600360008473ffffffffffffffffffffffffffffffffffffffff1673ffffffffffffffffffffffffffffffffffffffff16815260200190815260200160002060008282546126de91906136f0565b92505081905550816002600083815260200190815260200160002060006101000a81548173ffffffffffffffffffffffffffffffffffffffff021916908373ffffffffffffffffffffffffffffffffffffffff160217905550808273ffffffffffffffffffffffffffffffffffffffff16600073ffffffffffffffffffffffffffffffffffffffff167fddf252ad1be2c89b69c2b068fc378daa952ba7f163c4a11628f55a4df523b3ef60405160405180910390a461279f600083836123d2565b5050565b6000808273ffffffffffffffffffffffffffffffffffffffff163b119050919050565b8280546127d290613861565b90600052602060002090601f0160209004810192826127f4576000855561283b565b82601f1061280d57805160ff191683800117855561283b565b8280016001018555821561283b579182015b8281111561283a57825182559160200191906001019061281f565b5b509050612848919061284c565b5090565b5b8082111561286557600081600090555060010161284d565b5090565b600061287c6128778461364b565b613626565b90508281526020810184848401111561289857612897613a2e565b5b6128a384828561381f565b509392505050565b60006128be6128b98461367c565b613626565b9050828152602081018484840111156128da576128d9613a2e565b5b6128e584828561381f565b509392505050565b6000813590506128fc81613fee565b92915050565b60008135905061291181614005565b92915050565b6000813590506129268161401c565b92915050565b60008151905061293b8161401c565b92915050565b600082601f83011261295657612955613a29565b5b8135612966848260208601612869565b91505092915050565b600082601f83011261298457612983613a29565b5b81356129948482602086016128ab565b91505092915050565b6000813590506129ac81614033565b92915050565b6000602082840312156129c8576129c7613a38565b5b60006129d6848285016128ed565b91505092915050565b600080604083850312156129f6576129f5613a38565b5b6000612a04858286016128ed565b9250506020612a15858286016128ed565b9150509250929050565b600080600060608486031215612a3857612a37613a38565b5b6000612a46868287016128ed565b9350506020612a57868287016128ed565b9250506040612a688682870161299d565b9150509250925092565b60008060008060808587031215612a8c57612a8b613a38565b5b6000612a9a878288016128ed565b9450506020612aab878288016128ed565b9350506040612abc8782880161299d565b925050606085013567ffffffffffffffff811115612add57612adc613a33565b5b612ae987828801612941565b91505092959194509250565b60008060408385031215612b0c57612b0b613a38565b5b6000612b1a858286016128ed565b9250506020612b2b85828601612902565b9150509250929050565b60008060408385031215612b4c57612b4b613a38565b5b6000612b5a858286016128ed565b9250506020612b6b8582860161299d565b9150509250929050565b600060208284031215612b8b57612b8a613a38565b5b6000612b9984828501612917565b91505092915050565b600060208284031215612bb857612bb7613a38565b5b6000612bc68482850161292c565b91505092915050565b60008060008060008060c08789031215612bec57612beb613a38565b5b600087013567ffffffffffffffff811115612c0a57612c09613a33565b5b612c1689828a0161296f565b965050602087013567ffffffffffffffff811115612c3757612c36613a33565b5b612c4389828a0161296f565b955050604087013567ffffffffffffffff811115612c6457612c63613a33565b5b612c7089828a0161296f565b945050606087013567ffffffffffffffff811115612c9157612c90613a33565b5b612c9d89828a0161296f565b9350506080612cae89828a0161299d565b92505060a087013567ffffffffffffffff811115612ccf57612cce613a33565b5b612cdb89828a0161296f565b9150509295509295509295565b600060208284031215612cfe57612cfd613a38565b5b6000612d0c8482850161299d565b91505092915050565b60008060408385031215612d2c57612d2b613a38565b5b6000612d3a8582860161299d565b9250506020612d4b8582860161299d565b9150509250929050565b612d5e816137ab565b82525050565b612d6d816137bd565b82525050565b6000612d7e826136ad565b612d8881856136c3565b9350612d9881856020860161382e565b612da181613a3d565b840191505092915050565b6000612db7826136b8565b612dc181856136d4565b9350612dd181856020860161382e565b612dda81613a3d565b840191505092915050565b6000612df0826136b8565b612dfa81856136e5565b9350612e0a81856020860161382e565b80840191505092915050565b6000612e236009836136d4565b9150612e2e82613a4e565b602082019050919050565b6000612e466032836136d4565b9150612e5182613a77565b604082019050919050565b6000612e696026836136d4565b9150612e7482613ac6565b604082019050919050565b6000612e8c6025836136d4565b9150612e9782613b15565b604082019050919050565b6000612eaf601c836136d4565b9150612eba82613b64565b602082019050919050565b6000612ed2600a836136d4565b9150612edd82613b8d565b602082019050919050565b6000612ef56009836136d4565b9150612f0082613bb6565b602082019050919050565b6000612f186024836136d4565b9150612f2382613bdf565b604082019050919050565b6000612f3b6019836136d4565b9150612f4682613c2e565b602082019050919050565b6000612f5e6007836136d4565b9150612f6982613c57565b602082019050919050565b6000612f81602c836136d4565b9150612f8c82613c80565b604082019050919050565b6000612fa4600b836136d4565b9150612faf82613ccf565b602082019050919050565b6000612fc76038836136d4565b9150612fd282613cf8565b604082019050919050565b6000612fea6012836136d4565b9150612ff582613d47565b602082019050919050565b600061300d602a836136d4565b915061301882613d70565b604082019050919050565b60006130306029836136d4565b915061303b82613dbf565b604082019050919050565b60006130536020836136d4565b915061305e82613e0e565b602082019050919050565b6000613076602c836136d4565b915061308182613e37565b604082019050919050565b60006130996020836136d4565b91506130a482613e86565b602082019050919050565b60006130bc602f836136d4565b91506130c782613eaf565b604082019050919050565b60006130df6021836136d4565b91506130ea82613efe565b604082019050919050565b60006131026009836136d4565b915061310d82613f4d565b602082019050919050565b60006131256031836136d4565b915061313082613f76565b604082019050919050565b6000613148600c836136d4565b915061315382613fc5565b602082019050919050565b61316781613815565b82525050565b60006131798285612de5565b91506131858284612de5565b91508190509392505050565b60006020820190506131a66000830184612d55565b92915050565b60006080820190506131c16000830187612d55565b6131ce6020830186612d55565b6131db604083018561315e565b81810360608301526131ed8184612d73565b905095945050505050565b600060208201905061320d6000830184612d64565b92915050565b6000602082019050818103600083015261322d8184612dac565b905092915050565b600060c082019050818103600083015261324f8189612dac565b905081810360208301526132638188612dac565b905081810360408301526132778187612dac565b9050818103606083015261328b8186612dac565b905061329a608083018561315e565b81810360a08301526132ac8184612dac565b9050979650505050505050565b600060208201905081810360008301526132d281612e16565b9050919050565b600060208201905081810360008301526132f281612e39565b9050919050565b6000602082019050818103600083015261331281612e5c565b9050919050565b6000602082019050818103600083015261333281612e7f565b9050919050565b6000602082019050818103600083015261335281612ea2565b9050919050565b6000602082019050818103600083015261337281612ec5565b9050919050565b6000602082019050818103600083015261339281612ee8565b9050919050565b600060208201905081810360008301526133b281612f0b565b9050919050565b600060208201905081810360008301526133d281612f2e565b9050919050565b600060208201905081810360008301526133f281612f51565b9050919050565b6000602082019050818103600083015261341281612f74565b9050919050565b6000602082019050818103600083015261343281612f97565b9050919050565b6000602082019050818103600083015261345281612fba565b9050919050565b6000602082019050818103600083015261347281612fdd565b9050919050565b6000602082019050818103600083015261349281613000565b9050919050565b600060208201905081810360008301526134b281613023565b9050919050565b600060208201905081810360008301526134d281613046565b9050919050565b600060208201905081810360008301526134f281613069565b9050919050565b600060208201905081810360008301526135128161308c565b9050919050565b60006020820190508181036000830152613532816130af565b9050919050565b60006020820190508181036000830152613552816130d2565b9050919050565b60006020820190508181036000830152613572816130f5565b9050919050565b6000602082019050818103600083015261359281613118565b9050919050565b600060208201905081810360008301526135b28161313b565b9050919050565b60006020820190506135ce600083018461315e565b92915050565b60006040820190506135e9600083018561315e565b6135f66020830184612d55565b9392505050565b6000604082019050613612600083018561315e565b61361f602083018461315e565b9392505050565b6000613630613641565b905061363c8282613893565b919050565b6000604051905090565b600067ffffffffffffffff821115613666576136656139fa565b5b61366f82613a3d565b9050602081019050919050565b600067ffffffffffffffff821115613697576136966139fa565b5b6136a082613a3d565b9050602081019050919050565b600081519050919050565b600081519050919050565b600082825260208201905092915050565b600082825260208201905092915050565b600081905092915050565b60006136fb82613815565b915061370683613815565b9250827fffffffffffffffffffffffffffffffffffffffffffffffffffffffffffffffff0382111561373b5761373a61393e565b5b828201905092915050565b600061375182613815565b915061375c83613815565b92508261376c5761376b61396d565b5b828204905092915050565b600061378282613815565b915061378d83613815565b9250828210156137a05761379f61393e565b5b828203905092915050565b60006137b6826137f5565b9050919050565b60008115159050919050565b60007fffffffff0000000000000000000000000000000000000000000000000000000082169050919050565b600073ffffffffffffffffffffffffffffffffffffffff82169050919050565b6000819050919050565b82818337600083830152505050565b60005b8381101561384c578082015181840152602081019050613831565b8381111561385b576000848401525b50505050565b6000600282049050600182168061387957607f821691505b6020821081141561388d5761388c61399c565b5b50919050565b61389c82613a3d565b810181811067ffffffffffffffff821117156138bb576138ba6139fa565b5b80604052505050565b60006138cf82613815565b91507fffffffffffffffffffffffffffffffffffffffffffffffffffffffffffffffff8214156139025761390161393e565b5b600182019050919050565b600061391882613815565b915061392383613815565b9250826139335761393261396d565b5b828206905092915050565b7f4e487b7100000000000000000000000000000000000000000000000000000000600052601160045260246000fd5b7f4e487b7100000000000000000000000000000000000000000000000000000000600052601260045260246000fd5b7f4e487b7100000000000000000000000000000000000000000000000000000000600052602260045260246000fd5b7f4e487b7100000000000000000000000000000000000000000000000000000000600052603260045260246000fd5b7f4e487b7100000000000000000000000000000000000000000000000000000000600052604160045260246000fd5b600080fd5b600080fd5b600080fd5b600080fd5b6000601f19601f8301169050919050565b7f536f6c64206f7574200000000000000000000000000000000000000000000000600082015250565b7f4552433732313a207472616e7366657220746f206e6f6e20455243373231526560008201527f63656976657220696d706c656d656e7465720000000000000000000000000000602082015250565b7f4f776e61626c653a206e6577206f776e657220697320746865207a65726f206160008201527f6464726573730000000000000000000000000000000000000000000000000000602082015250565b7f4552433732313a207472616e736665722066726f6d20696e636f72726563742060008201527f6f776e6572000000000000000000000000000000000000000000000000000000602082015250565b7f4552433732313a20746f6b656e20616c7265616479206d696e74656400000000600082015250565b7f556e646572666c6f772000000000000000000000000000000000000000000000600082015250565b7f4f776e61626c653a3a0000000000000000000000000000000000000000000000600082015250565b7f4552433732313a207472616e7366657220746f20746865207a65726f2061646460008201527f7265737300000000000000000000000000000000000000000000000000000000602082015250565b7f4552433732313a20617070726f766520746f2063616c6c657200000000000000600082015250565b7f42616c616e636500000000000000000000000000000000000000000000000000600082015250565b7f4552433732313a206f70657261746f7220717565727920666f72206e6f6e657860008201527f697374656e7420746f6b656e0000000000000000000000000000000000000000602082015250565b7f496e76616c696420696420000000000000000000000000000000000000000000600082015250565b7f4552433732313a20617070726f76652063616c6c6572206973206e6f74206f7760008201527f6e6572206e6f7220617070726f76656420666f7220616c6c0000000000000000602082015250565b7f5072696365206e6f742020636f72726563740000000000000000000000000000600082015250565b7f4552433732313a2062616c616e636520717565727920666f7220746865207a6560008201527f726f206164647265737300000000000000000000000000000000000000000000602082015250565b7f4552433732313a206f776e657220717565727920666f72206e6f6e657869737460008201527f656e7420746f6b656e0000000000000000000000000000000000000000000000602082015250565b7f4552433732313a206d696e7420746f20746865207a65726f2061646472657373600082015250565b7f4552433732313a20617070726f76656420717565727920666f72206e6f6e657860008201527f697374656e7420746f6b656e0000000000000000000000000000000000000000602082015250565b7f4f776e61626c653a2063616c6c6572206973206e6f7420746865206f776e6572600082015250565b7f4552433732314d657461646174613a2055524920717565727920666f72206e6f60008201527f6e6578697374656e7420746f6b656e0000000000000000000000000000000000602082015250565b7f4552433732313a20617070726f76616c20746f2063757272656e74206f776e6560008201527f7200000000000000000000000000000000000000000000000000000000000000602082015250565b7f4e6f746578697374200000000000000000000000000000000000000000000000600082015250565b7f4552433732313a207472616e736665722063616c6c6572206973206e6f74206f60008201527f776e6572206e6f7220617070726f766564000000000000000000000000000000602082015250565b7f53616c6520636f6c736564200000000000000000000000000000000000000000600082015250565b613ff7816137ab565b811461400257600080fd5b50565b61400e816137bd565b811461401957600080fd5b50565b614025816137c9565b811461403057600080fd5b50565b61403c81613815565b811461404757600080fd5b5056fea2646970667358221220893f804ad916a5726bc5bdaaddae5df504191378db421336499bd0f4598bf26c64736f6c63430008070033",
  "linkReferences": {},
  "deployedLinkReferences": {}
}